:10000000000200207D0D0000F50D0000FD0D000038
:10001000050E0000050E0000050E000000000000A7
:10002000000000000000000000000000050E0000BD
:10003000050E000000000000050E0000050E000087
:10004000050E0000050E0000050E0000050E000064
:10005000050E0000050E0000050E0000050E000054
:10006000050E0000050E0000050E0000050E000044
:10007000050E0000050E0000050E0000050E000034
:10008000050E0000050E0000050E0000050E000024
:10009000050E0000050E0000050E0000050E000014
:1000A000050E0000050E0000050E0000050E000004
:1000B000050E0000050E0000050E0000050E0000F4
:1000C000050E0000050E0000050E0000050E0000E4
:1000D000050E0000050E0000050E0000050E0000D4
:1000E000050E0000050E0000050E0000050E0000C4
:1000F000050E0000050E0000050E0000050E0000B4
:10010000050E0000050E0000050E0000050E0000A3
:10011000050E0000050E0000050E0000050E000093
:10012000050E0000050E0000050E0000050E000083
:10013000050E0000050E0000050E0000050E000073
:1001400000000000000000000000000000000000AF
:10015000050E0000050E0000050E0000050E000053
:10016000000000000000000000000000000000008F
:10017000000000000000000000000000000000007F
:10018000000000000000000000000000000000006F
:10019000000000000000000000000000000000005F
:1001A000000000000000000000000000000000004F
:1001B000050E0000050E0000050E0000050E0000F3
:1001C000050E0000050E0000050E0000050E0000E3
:1001D000050E0000050E0000050E0000050E0000D3
:1001E000050E0000050E0000050E0000050E0000C3
:1001F000050E0000050E0000050E0000050E0000B3
:10020000050E0000050E0000050E000000000000B5
:10021000050E0000050E0000050E0000050E000092
:10022000050E0000050E0000050E0000050E000082
:10023000050E0000050E0000050E0000050E000072
:10024000050E0000050E0000050E0000050E000062
:10025000050E0000050E0000050E0000050E000052
:10026000050E0000050E0000050E000080B500AF71
:1002700000F0C2FC00F0C8F800F0BEFC00F06AF923
:1002800000F0BAFC00F090FB00F0B6FC00F008FAB9
:10029000EEE700BF80B500AF4FF4A860C0F2C070B9
:1002A00000F076FE0120C2F2000000F03FFE0220C6
:1002B000C2F2000000F03AFE4FF04020C02100F0F2
:1002C00026FE4FF4A040C4F20000FF2100F01FFE04
:1002D00048F28040C0F21E0000F056FE4FF0402071
:1002E000C021002200F010FE4FF4A040C4F2000034
:1002F000FF21382200F008FE4FF04020C02180226C
:1003000000F002FEC82000F03FFE4FF04020C02168
:10031000002200F0F9FD4AF2C62000F035FE4FF44D
:10032000A040C4F20000FF21382200F0EDFD4FF0A4
:100330004020C021802200F0E7FDC82000F024FE0C
:100340004FF04020C021002200F0DEFD4AF2C6201E
:1003500000F01AFE4FF4A040C4F20000FF21062274
:1003600000F0D2FD4FF04020C021802200F0CCFDF3
:10037000C82000F009FE4FF04020C021002200F00C
:10038000C3FD4AF2C62000F0FFFD4FF4A040C4F2C6
:100390000000FF210E2200F0B7FD4FF04020C021E9
:1003A000802200F0B1FDC82000F0EEFD4FF04020AB
:1003B000C021002200F0A8FD4AF2C62000F0E4FDB2
:1003C0004FF4A040C4F20000FF21012200F09CFD88
:1003D0004FF04020C021802200F096FDC82000F0A0
:1003E000D3FD4FF04020C021002200F08DFD44F2EB
:1003F0008250C0F2010000F0C7FD45F6BC30C0F2EB
:10040000060000F0C1FD80BDB0B59CB000AF002378
:10041000FB6641F20413C0F2000307F140041D46DD
:100420000FCD0FC40FCD0FC495E8070084E8070077
:1004300041F23013C0F200033C1D1D460FCD0FC426
:100440000FCD0FC40FCD0FC495E8070084E8070057
:100450000023FB6627E0FB6E9B0007F1700213444C
:1004600053F8303CDBB24FF4A040C4F20000FF214F
:100470001A4600F049FD4FF04020C021C02200F094
:1004800043FD022000F080FD4FF04020C0214022BB
:1004900000F03AFD4BF21470C0F20C0000F074FD55
:1004A000FB6E0133FB66FB6E0A2BD4DD4FF4A040DC
:1004B000C4F20000FF21A82200F026FD4FF04020EA
:1004C000C021802200F020FD022000F05DFD4FF0F1
:1004D0004020C021002200F017FD45F6BC30C0F2DC
:1004E000060000F051FD44F64030C0F24C0000F030
:1004F0004BFD0023FB6627E0FB6E9B0007F17002BB
:10050000134453F86C3CDBB24FF4A040C4F200003B
:10051000FF211A4600F0F8FC4FF04020C021C02215
:1005200000F0F2FC022000F02FFD4FF04020C0212F
:10053000402200F0E9FC4BF21470C0F20C0000F015
:1005400023FDFB6E0133FB66FB6E0E2BD4DD703793
:10055000BD46B0BDB0B59CB000AF0023FB6641F214
:100560000413C0F2000307F140041D460FCD0FC471
:100570000FCD0FC495E8070084E8070041F230135F
:10058000C0F200033C1D1D460FCD0FC40FCD0FC49C
:100590000FCD0FC495E8070084E807000023FB6631
:1005A00027E0FB6E9B0007F17002134453F86C3C8C
:1005B000DBB24FF4A040C4F20000FF211A4600F065
:1005C000A3FC4FF04020C021C02200F09DFC02207F
:1005D00000F0DAFC4FF04020C021402200F094FCF3
:1005E0004BF21470C0F20C0000F0CEFCFB6E013335
:1005F000FB66FB6E0E2BD4DD4FF4A040C4F200006E
:10060000FF21A82200F080FC4FF04020C021802272
:1006100000F07AFC022000F0B7FC4FF04020C0212F
:10062000002200F071FC45F6BC30C0F2060000F07C
:10063000ABFC44F64030C0F24C0000F0A5FC0023B7
:10064000FB6627E0FB6E9B0007F17002134453F832
:10065000303CDBB24FF4A040C4F20000FF211A4648
:1006600000F052FC4FF04020C021C02200F04CFCB2
:10067000022000F089FC4FF04020C021402200F011
:1006800043FC4BF21470C0F20C0000F07DFCFB6EDA
:100690000133FB66FB6E0A2BD4DD7037BD46B0BD5F
:1006A000B0B5A2B000AF0023C7F8843041F26C139C
:1006B000C0F2000307F13C041D460FCD0FC40FCD5F
:1006C0000FC40FCD0FC495E8070084E8070041F27E
:1006D0003013C0F200033C461D460FCD0FC40FCDB2
:1006E0000FC40FCD0FC495E8070084E8070000236E
:1006F000BB670F23C7F880300023FB6767E0002348
:10070000C7F884301FE04FF4A040C4F20000FF217E
:10071000202200F0F9FB4FF04020C021C02200F061
:10072000F3FB022000F030FC4FF04020C0214022BB
:1007300000F0EAFB42F28D0000F026FCD7F884308E
:100740000133C7F88430D7F88420D7F880309A4234
:10075000D9DBD7F88030C3F11003FB67D7F88030BE
:10076000013BC7F880300023C7F8843028E0D7F871
:1007700084309B0007F18802134453F84C3CDBB2F1
:100780004FF4A040C4F20000FF211A4600F0BCFB69
:100790004FF04020C021C02200F0B6FB022000F044
:1007A000F3FB4FF04020C021402200F0ADFB42F2AD
:1007B0008D0000F0E9FBD7F884300133C7F88430AE
:1007C000D7F88420FB6F9A42D1DBFFF763FDD7F89F
:1007D0008020BB6F9A4292D10023C7F8843028E072
:1007E000D7F884309B0007F18802134453F84C3C3F
:1007F000DBB24FF4A040C4F20000FF211A4600F023
:1008000083FB4FF04020C021C02200F07DFB02207E
:1008100000F0BAFB4FF04020C021402200F074FBF2
:1008200042F28D0000F0B0FBD7F884300133C7F8F6
:100830008430D7F88420FB6F9A42D1DB49F2806084
:10084000C0F2980000F0A0FB0023BB670F23C7F89D
:1008500080300023FB6767E00023C7F884301FE087
:100860004FF4A040C4F20000FF21202200F04CFB16
:100870004FF04020C021C02200F046FB022000F0D3
:1008800083FB4FF04020C021402200F03DFB42F2AC
:100890008D0000F079FBD7F884300133C7F884303D
:1008A000D7F88420D7F880309A42D9DBD7F8803047
:1008B000C3F11003FB67D7F88030013BC7F88030E5
:1008C0000023C7F8843028E0D7F884309B0007F174
:1008D0008802134453F8883CDBB24FF4A040C4F2C2
:1008E0000000FF211A4600F00FFB4FF04020C0210E
:1008F000C02200F009FB022000F046FB4FF0402030
:10090000C021402200F000FB42F28D0000F03CFBD1
:10091000D7F884300133C7F88430D7F88420FB6FD0
:100920009A42D1DBFFF7B6FCD7F88020BB6F9A4222
:1009300092D10023C7F8843028E0D7F884309B0098
:1009400007F18802134453F8883CDBB24FF4A0400F
:10095000C4F20000FF211A4600F0D6FA4FF0402002
:10096000C021C02200F0D0FA022000F00DFB4FF0B1
:100970004020C021402200F0C7FA42F28D0000F072
:1009800003FBD7F884300133C7F88430D7F88420CC
:10099000FB6F9A42D1DB49F28060C0F2980000F010
:1009A000F3FA8837BD46B0BDB0B5A0B000AF0023A4
:1009B000FB6741F20413C0F2000307F13C041D463B
:1009C0000FCD0FC40FCD0FC495E8070084E80700D2
:1009D00041F23013C0F200033C461D460FCD0FC458
:1009E0000FCD0FC40FCD0FC495E8070084E80700B2
:1009F0000023BB670B23BB6601237B670A233B678E
:100A00000A23FB663DE0BB6EFB6728E03B6F9B0063
:100A100007F18002134453F8443CDBB24FF4A0408A
:100A2000C4F20000FF211A4600F06EFA4FF0402099
:100A3000C021C02200F068FA022000F0A5FA4FF0B1
:100A40004020C021402200F05FFA42F28D0000F009
:100A50009BFA3B6F01333B67FB6F013BFB67FA6F10
:100A6000FB6E9A42D2DC7B6F01337B67BB6F013335
:100A7000BB677B6FC3F10B033B673B6FFB66FFF705
:100A800009FCBB6F0B2BBED10023FB6725E0FB6F7E
:100A90009B0007F18002134453F8443CDBB24FF44F
:100AA000A040C4F20000FF211A4600F02DFA4FF0DA
:100AB0004020C021C02200F027FA022000F064FA92
:100AC0004FF04020C021402200F01EFA42F28D007B
:100AD00000F05AFAFB6F0133FB67FA6FBB6E9A4264
:100AE000D5DB49F28060C0F2980000F04DFA002397
:100AF000BB670F23BB6601237B670E233B670E2377
:100B0000FB66FFF7C7FB3DE0BB6EFB6728E03B6F72
:100B10009B0007F18002134453F8803CDBB24FF492
:100B2000A040C4F20000FF211A4600F0EDF94FF09A
:100B30004020C021C02200F0E7F9022000F024FA92
:100B40004FF04020C021402200F0DEF942F28D003B
:100B500000F01AFA3B6F01333B67FB6F013BFB6709
:100B6000FA6FFB6E9A42D2DC7B6F01337B67BB6FFF
:100B70000133BB677B6FC3F10F033B673B6FFB66C2
:100B8000FFF788FBBB6F0F2BBED10023FB6725E06F
:100B9000FB6F9B0007F18002134453F8803CDBB2EB
:100BA0004FF4A040C4F20000FF211A4600F0ACF957
:100BB0004FF04020C021C02200F0A6F9022000F032
:100BC000E3F94FF04020C021402200F09DF942F2AD
:100BD0008D0000F0D9F9FB6F0133FB67FA6FBB6E34
:100BE0009A42D5DB49F28060C0F2980000F0CCF95F
:100BF0008037BD46B0BD00BF80B500AF4FF4A860E0
:100C0000C0F2C07000F0C4F90120C2F2000000F090
:100C10008DF90220C2F2000000F088F94FF0402068
:100C2000C02100F074F94FF4A040C4F20000FF218D
:100C300000F06DF945F61060C0F25F0000F0A4F915
:100C40004FF04020C021002200F05EF94FF4A04098
:100C5000C4F20000FF21382200F056F94FF0402086
:100C6000C021802200F050F9C82000F08DF94FF02B
:100C70004020C021002200F047F945F6BC30C0F208
:100C8000060000F081F94FF4A040C4F20000FF21FB
:100C9000382200F039F94FF04020C021802200F0C6
:100CA00033F9C82000F070F94FF04020C021002235
:100CB00000F02AF945F6BC30C0F2060000F064F9F5
:100CC0004FF4A040C4F20000FF21062200F01CF9FE
:100CD0004FF04020C021802200F016F9C82000F01B
:100CE00053F94FF04020C021002200F00DF945F6E5
:100CF000BC30C0F2060000F047F94FF4A040C4F247
:100D00000000FF210E2200F0FFF84FF04020C0212C
:100D1000802200F0F9F8C82000F036F94FF04020AA
:100D2000C021002200F0F0F845F6BC30C0F2060009
:100D300000F02AF94FF4A040C4F20000FF21012284
:100D400000F0E2F84FF04020C021802200F0DCF8F3
:100D5000C82000F019F94FF04020C021002200F017
:100D6000D3F84BF21470C0F20C0000F00DF945F608
:100D7000BC30C0F2060000F007F980BD80B582B03B
:100D800000AF41F2B413C0F200037B6040F20003F5
:100D9000C2F200033B6007E03B681A1D3A607A68C4
:100DA000111D796012681A603A6840F20003C2F2BD
:100DB00000039A42F0D30D480D494FF000028842DB
:100DC000B8BF40F8042BFADB4EF68853CEF200038E
:100DD0004EF68852CEF20002126842F470021A6097
:100DE000FFF744FA0837BD4680BD00000000002030
:100DF0000002002080B400AFFEE700BF80B400AF67
:100E0000FEE700BF80B400AFFEE700BFD0F80034BB
:100E100012F0010F10B500F5806414BF0B438B4333
:100E2000236012F0020FD0F8202400F5846314BF71
:100E3000114322EA0101196010BD30B5D0F8004518
:100E400012F0010F00F5A06514BF0C438C432C6019
:100E5000D0F8045500F5A06412F0020F04F1040468
:100E600014BF0D438D432560D0F8084512F0040FE0
:100E700000F5A16514BF0C438C432C6012F0080FE1
:100E8000D0F8182500F5A36414BF0A438A432260F2
:100E9000D0F80C4500F5A06213F0010F02F10C022E
:100EA00014BF0C438C431460D0F8102513F0020FCC
:100EB00000F5A26414BF0A438A432260D0F81445A7
:100EC00000F5A26213F0040F02F1040214BF0C43F8
:100ED0008C431460D0F81C4500F5A26213F0080F93
:100EE00002F10C0214BF0C438C43146000F5A562A0
:100EF00023B9D0F8283543EA010103E0D0F82835BA
:100F000023EA0101116030BD40F82120704770B51F
:100F10000122082305460C46FFF78FFF284621468D
:100F20000122BDE87040FFF771BF000000F0704380
:100F3000B3F1704F15D100F47F42114B120A00F04B
:100F4000FF00D318800003F0704240F0007023F0DF
:100F50007F43104323F4700340EA431301221A60D5
:100F60007047020F074B53F8223081B200F4F8109B
:100F70001A68000C11FA00F010431860704700BFA7
:100F800000E60F40A81100000138FDD170470000B5
:100F9000534B1A6812F0E04F2DE9F041044606D099
:100FA0001A68504B02EA0303B3F1805F02D1002CB0
:100FB000C0F294804C494D4A0B68166843F40063B4
:100FC00023F4800546F4006613F0020F0D601660EE
:100FD00002D014F0020F05D015F0010F1AD014F052
:100FE000010F17D164F003031D403F4B002E1D601D
:100FF00005DA06F07003302B05D0702B02E005F007
:101000003003302B02D14FF4805001E04FF4002028
:10101000FFF7BAFF04F4FE6325F4FE6545EA030812
:10102000334D324F26F0004604EA050526F07006DF
:1010300045EA060604F0080546EAC5052A4E1020D2
:10104000C6F800803D60FFF79FFF28F4405804F485
:101050000052284904F4405325F4005548EA03039C
:1010600040201543244A086052BF33603D6033601E
:1010700023F0F86304EA020223F0030358BF3D6043
:10108000134304F0FC5125F0FC5214F0804F42EA67
:10109000010208D0194922F4800204EA010143F454
:1010A00080030A4301E022F0804214F4006F0CD167
:1010B0004FF400411248006810F0400F01D101398F
:1010C000F8D123F4006322F4006207490B60074B58
:1010D00010201A60BDE8F041FFF756BFBDE8F0816F
:1010E00000E00F400000FF7060E00F4070E00F4034
:1010F0003000008058E00F400300C007000040406F
:1011000050E00F406B0000006F0000006300000023
:1011100061000000650000006C0000006900000034
:1011200020000000750000006E0000006900000053
:101130004E00000045000000440000005200000086
:10114000450000005400000020000000470000009F
:101150004500000047000000450000004F0000006F
:10116000470000004C000000550000006B0000002C
:101170006F000000630000006100000065000000D7
:101180006C000000690000002000000075000000F5
:101190006E00000069000000200000002000000038
:1011A000200000002000000000E10F4004E10F409B
:0411B00008E10F4003
:00000001FF
